:020000040800F2
:1000000070080020A9010008D11C0008F1150008A3
:10001000A11C000851100008832F000800000000F8
:100020000000000000000000000000006124000843
:100030005510000800000000052300084D250008A9
:10004000C3010008C3010008C3010008C301000880
:10005000C3010008C3010008C3010008C301000870
:10006000C3010008C3010008C3010008C301000860
:10007000C3010008C3010008C3010008C301000850
:10008000C3010008C3010008C3010008C301000840
:10009000C3010008C3010008C30100089D10000847
:1000A000C3010008C3010008C3010008C301000820
:1000B0009D280008B5280008C3010008C3010008F6
:1000C000C3010008C3010008C3010008C301000800
:1000D000C3010008E92C0008C3010008C30100089F
:1000E000C3010008C3010008C301000800F002F8C2
:1000F00000F04AF80AA090E8000C82448344AAF178
:100100000107DA4501D100F03FF8AFF2090EBAE875
:100110000F0013F0010F18BFFB1A43F0010318473B
:10012000BC890000DC890000103A24BF78C878C17F
:10013000FAD8520724BF30C830C144BF04680C60ED
:10014000704700000023002400250026103A28BF35
:1001500078C1FBD8520728BF30C148BF0B60704739
:10016000642900F09B80632900F0CC820020704756
:100170001FB59DE8030000F041FD00F00BFB1FBD23
:1001800010B500F070FB10BD00F0FEFB1146FFF74C
:10019000EFFF04F05BFD00F003FD03B4FFF7F0FF99
:1001A00003BC00F0BDFE0000094880470948004735
:1001B000FEE7FEE7FEE7FEE7FEE7FEE7FEE7FEE717
:1001C000FEE7FEE704480549054A064B7047000074
:1001D00051250008ED000008700200207008002082
:1001E000700400207004002010B54C1084EA530401
:1001F00004D54042C1F1000138BF491E1B4204D55D
:100200005242C3F1000338BF5B1E00F07EF914F0C8
:10021000804F04D04042C1F1000138BF491E14F0A4
:10022000004F04D05242C3F1000338BF5B1E10BD23
:100230000FB4044910B503AA029800F06FFA10BC7D
:100240005DF814FB6801002070B50C460546012AD4
:1002500005D02878800600D5EA69002302E0012352
:1002600005E05B1C934202D2E05C0028F9D1A8694A
:10027000E618C01AA861286A184428622846AFF315
:10028000008004E0D5E9012114F8010B9047B44245
:10029000F8D32846AFF3008070BD00002DE9F0418F
:1002A0000646002410687529314616A510D0AFF314
:1002B0000080002802DA404213A507E031688A076F
:1002C00001D512A502E0490704D511A5012401E0DA
:1002D000AFF3008000210A2206F1240709E0B0FBF9
:1002E000F2FCB0FBF2F302FB1C00303078541846ED
:1002F000491C0028F3D123462A463046BDE8F04188
:1003000000F085B9000000002D0000002B00000067
:10031000200000002DE9F05F894604464FF0000AF6
:10032000DFF874B1FB44C0F820A02046E16888479C
:10033000002874D0252806D0D4E901219047206AEE
:10034000401C2062F1E700265F462046E1688847AE
:100350002028054607DB312D05D2781910F8200C2E
:1003600008B10643F1E7B00701D526F00406C4F84A
:100370001CA00027C4F818A02A2D09D0284602F096
:1003800081FF38B304EB8708303DC8F8185019E0F6
:1003900059F8041B204604EB87029161E168884705
:1003A000012F054618D1E069002820DA26F0200642
:1003B0001DE0D8F8180000EB800005EB4000303855
:1003C000C8F818002046E1688847054602F05AFF41
:1003D0000028EED1012F0AD02E2D08D12046E16849
:1003E00088477F1C0546022F46F02006C4DBA06923
:1003F000002803DA404246F00106A061F00701D070
:1004000026F010066C2D0BD0682D09D04C2D39D05C
:100410006A2D35D0742D35D07A2D33D016E038E0E2
:10042000E1682F4620468847B842054609D16C2F1F
:1004300026D04FF48060E168064320468847054691
:1004400004E06C2F1AD04FF4807006430DB3A5F171
:100450004100192802D8203546F400664A4629464C
:10046000204626604E46FFF77BFE80B101280BD068
:10047000F61D26F0070000F1080956E74020E4E7E2
:100480008020D8E70020D6E706F104094DE728468A
:1004900052E7206ABDE8F09F5686000040EA01035B
:1004A00010B59B070FD1042A0DD310C808C9121F1D
:1004B0009C42F8D020BA19BA884201D9012010BD57
:1004C0004FF0FF3010BD1AB1D30703D0521C07E024
:1004D000002010BD10F8013B11F8014B1B1B07D188
:1004E00010F8013B11F8014B1B1B01D1921EF1D1F9
:1004F000184610BD02F0FF0343EA032242EA02421B
:1005000000F020B970477047704753EA020C00F0C2
:1005100069802DE9F04B4FF00006002B1FBFB3FAA6
:1005200083F503FA05F424FA05F65E4012BF16437C
:10053000B2FA82F502FA05F4C5F120051EBF22FACF
:1005400005FC44EA0C04203556EA044C4FEA1444F6
:1005500018BF641C4FF000084FF00009904271EB87
:10056000030C39D3002919BFB1FA81F701FA07F654
:10057000B0FA80F700FA07F6C7F120071EBF20FA8D
:1005800007FC46EA0C062037B6FBF4FCA7EB050790
:10059000103F07F01F0BCBF120060CFA0BFB2CFAD7
:1005A00006F644BFB3460026202FA4BF5E464FF098
:1005B000000B5BEA060C08BF4FF0010B19EB0B09AF
:1005C000ABFB027C48EB0608C01B06FB02CC0BFB16
:1005D00003CC71EB0C01C1E70B460246414648468D
:1005E000BDE8F08B13B54FF000004FF00001AFF302
:1005F0000080BDE81C40704710B500F0C3F80068EB
:1006000010BD10B5044600F0BDF8046010BD2DE922
:10061000F0470D4699469246044600F124080168C9
:10062000880604D5E06921F01001216000E0012076
:10063000A84201DD471B00E00027A1697A1902EBFF
:100640000900081AA0612078C00602D42046AFF342
:100650000080002608E0D4E901211AF8060090473E
:10066000206A401C761C20624E45F4DB2078C006D0
:100670000AD52046AFF3008006E0D4E901213020FE
:100680009047206A401C2062381EA7F10107F4DC65
:1006900007E0D4E9012118F805009047206A401CC2
:1006A0002062281EA5F10105F3DC2046AFF300808F
:1006B0002078000602D50220BDE8F0870120FBE784
:1006C00001694A1C02610878704700B58FB0CDE916
:1006D00001310021059105497944CDE90310114606
:1006E0006846FFF717FE0FB000BD0000E5FFFFFFF3
:1006F00010B5436913B1AFF3008001E0FFF7A4FD2B
:10070000012010BD127800F124010A7000224A7005
:100710000122EDE711684FF0FF32E9E7074B70B5B2
:100720000D467B44FFF7D1FF0446284600F02EF823
:1007300010B14FF0FF3070BD204670BD5B3E000031
:100740004FF000020429C0F0128010F0030C00F0FA
:10075000BF80CCF1040CBCF1020F18BF00F8012BD4
:10076000A8BF20F8022BA1EB0C0100F0B1B85FEAA2
:10077000C17C24BF00F8012B00F8012B48BF00F812
:10078000012B70470048704710020020007B00F0EA
:100790008000704710B54248542100F097F8414856
:1007A000542100F093F84048542100F08FF83F495D
:1007B0003B483C4A3F4B08603D490A603A49196052
:1007C000531C0365481C1065012008653B48344AEA
:1007D00039A1784400F048F920B9384878440A38FB
:1007E00000F0E7F937482F4A35A1784400F03CF98A
:1007F00020B9344878440A3800F0DBF932482A4AF4
:100800002FA1784400F030F920B92F4878440A38F5
:1008100000F0CFF940232248DC000021224600F0FE
:10082000FFF820B125487844543800F0C2F91D483B
:1008300022464023002100F0F3F820B121487844FB
:10084000543800F0B6F9184822461023002100F071
:10085000E7F8002806D01C487844BDE81040563818
:1008600000F0A7B910BD104870B5006D20F001046C
:100870000B4800F06FF90B4800F06CF90A4800F0E3
:1008800069F909E0206D20F00105204600F062F9C9
:10089000204600F09EF82C46002CF3D170BD0000DD
:1008A0001401002068010020BC010020B8000020D5
:1008B000BC000020C000002072000000AA820000DE
:1008C0007700000096820000828200004FF0000254
:1008D00000B5134694469646203922BFA0E80C5036
:1008E000A0E80C50B1F12001BFF4F7AF090728BF11
:1008F000A0E80C5048BF0CC05DF804EB890028BF8D
:1009000040F8042B08BF704748BF20F8022B11F0B5
:10091000804F18BF00F8012B70470EB5CDE90001DC
:1009200000F0DEFA029069460120ABBE0EBD08B5AC
:10093000694600900220ABBE08BD1FB58DE80700D8
:1009400069460520ABBE04B010BD1FB58DE80F0091
:1009500069460620ABBEF6E708B569460090092057
:10096000ABBE08BD1CB5CDE9000169460A20ABBE8F
:100970001CBD704708B5694600900C20ABBE08BD91
:1009800000487047100200207546FFF7F9FFAE4699
:1009900005006946534620F00700854618B020B58B
:1009A000FFF710FCBDE820404FF000064FF00007B5
:1009B0004FF000084FF0000B21F00701AC46ACE807
:1009C000C009ACE8C009ACE8C009ACE8C0098D4674
:1009D000704770B50446051F00F0F4F80068002C5D
:1009E00014BF446870BD002C18BFAC423CBF204609
:1009F0006468F8D301680A18AA4218BF456003D199
:100A00002A6805461144016028684119A1421CBFAB
:100A10006C6070BD6168696021680844286070BDC1
:100A200070B5C468A50713D0650211D4B2F5807FF4
:100A300009D0B2F5007F06D0B2F5806F08D101234E
:100A400000F1240106E05D1E6FF07F46B54201D340
:100A5000012070BD0161C361416024F470611143E4
:100A6000C160002070BD00002DE9F0410C46074632
:100A70001646104600F06EF82078611C61280AD0F6
:100A8000722802D077283CD102E00125002405E03D
:100A90000225042402E0082448F2020511F8010BA3
:100AA0002B2806D0622809D011F8010C74280AD02E
:100AB0000BE045F0030544F00204EFE745F00405C0
:100AC00044F00104EAE744F0100438462146FFF7F9
:100AD00024FF411C15D00021316171604FF4007179
:100AE000F560F1617061200704D5304602220021D3
:100AF00000F0E2F8306D40F0010030653046BDE8AE
:100B0000F0810020FBE72DE9F0410D460646104C30
:100B1000206DC10704D0410804D020F00104F7E79C
:100B200022460EE0542000F098F807000ED0206D09
:100B300047F001010843542120653846FFF7C6FEFF
:100B40003A4629463046BDE8F0418DE70020D6E719
:100B5000140100202DE9F04704464FF000094FF042
:100B6000FF37C568D4E90486A80707D0204600F0FF
:100B700053F93046FFF7DBFE002802DA3846BDE8BD
:100B8000F087280502D54046FFF723FF4C21204679
:100B9000FFF79CFE206D20F0010020654846EEE73F
:100BA00010B50446AFF300802046BDE81040FFF7C3
:100BB000F4BA10B500F07AF9BDE8104000F070B951
:100BC00070470000004870471802002070477047C7
:100BD0007047704738B504460A4600206946AFF3AF
:100BE0000080002808BF38BD02460099204600F06A
:100BF000A4F9012038BD012000F0F3B9F8B5AFF336
:100C00000080054600200C46102000BF0646A819AB
:100C1000A0420DD9324669460020AFF3008007009C
:100C200008BF00F0DEF90098A04218BF0546C419BD
:100C3000FFF7C8FF05600746F01D20F007004619C2
:100C4000284600F073F9B44208BFF8BDA21B314634
:100C50003868BDE8F84000F070B970B50646FFF797
:100C6000B1FF056806F10B0020F00704B4429CBFF9
:100C7000002070BD2B466A68BAB11068A04210D33C
:100C800004F1080188423CBF5068586007D351689E
:100C9000101941601168091B016058601460101D33
:100CA00070BD13465268002AE7D121462846FFF757
:100CB00091FF0028DED170BD2DE9F04104461646B3
:100CC0000D464769007B80072ED03846FFF744FE6B
:100CD00050BB3EB3012E02D0022E25D104E02046A7
:100CE00000F045F905441DE03846FFF743FEE16892
:100CF000002841F01001E16005DA204600F058F8C4
:100D00000120BDE8F081C9030BD56268E16A914218
:100D100000D81146A26911442269891A814200DD76
:100D200008460544002D01DA0220EAE7E16A60681E
:100D3000E268814206D29103E06203D522F40031D9
:100D400041F01002A6690027AE4213DCE16A81423D
:100D500001D90B4600E0034603EB060C2369ACEB1C
:100D6000030CAC4506DD814201D98C4600E0844687
:100D70009C4505D1A760276042F02000A5620DE0E8
:100D8000AD1BE669AE1B8142A66000D90846C01AB9
:100D9000281A20605819606022F02000034908409A
:100DA000E060002084F84870ABE70000BFCFD7FFB9
:100DB000C16821F4001141F08001C160002181600F
:100DC000016070472DE9F047814614460E464FF00A
:100DD000FF383248D5685769054209D03846A169BD
:100DE000FFF7C0FD002811DB2C48C0430540E5603B
:100DF0002B46324649463846FFF79FFDA16920F051
:100E00000042B21A11440028A16103D02046FFF726
:100E1000CFFF4046BDE8F08770B504460569C06A5B
:100E20006168884200D80846E16821F42011E16039
:100E3000C90312D5A84208D02246411B2846FFF715
:100E4000C1FF10B14FF0FF3070BD0020E562C4E972
:100E50000150E06820F48030E060002070BD10B5E3
:100E60000446C06820F02000E060A16AA0698842C2
:100E70000DD02046FFF7D0FFE06820F4405040F04E
:100E80001000E060A06AA0612069E062606044F246
:100E90004001E0688843E06010BD000010000200DF
:100EA000002801D000F03CB87047000010B50146A2
:100EB00002A000F07DF8012010BD00005349475208
:100EC000545245443A2052656469726563743A200D
:100ED00063616E2774206F70656E3A200000000019
:100EE00010B5431C02E010F8011B71B18107FAD163
:100EF0004FF0013202C88C1A8C4314EAC211F9D0A7
:100F0000C01A0A0603D0C01E10BDC01A10BD0A04C4
:100F100001D0801E10BD0902FCD0401E10BD000093
:100F200001491820ABBEFEE7260002000021016047
:100F3000C0E90110704710207047034640688C4696
:100F4000002818BF88423CBF03464068F8D31868A1
:100F50001844884207D00CF1030020F00700001D60
:100F6000411A521A0146081D0A60FFF732BD10B53A
:100F70000146C268900703D0900607D5886A0AE048
:100F8000FFF700FC01210160881E10BD8B694868D5
:100F900018440B69C01A91F848301BB191F84910F8
:100FA000401A10BD1103FCD50028FADD401E10BD0B
:100FB00070B505460C460A2000E06D1C00F018F8DC
:100FC00035B128780028F8D102E0641C00F010F850
:100FD00014B120780028F8D1BDE870400A2000F054
:100FE00007B810B500F00CF8BDE81040FFF758BF87
:100FF00008B569468DF800000320ABBE08BD0000AF
:1010000010B5012805D0002103A0FFF7D1FF012072
:1010100010BD09A1F8E7000053494752544D454D12
:101020003A204F7574206F662068656170206D6589
:101030006D6F7279000000003A2048656170206D84
:10104000656D6F727920636F72727570746564007C
:1010500000BFFEE7704700B5034603E04FF47A7027
:1010600000F005F8181EA3F10103F7D100BD00EB55
:10107000C001C9004FF0E0225161002191610521BA
:10108000116100BF4FF0E021096901F480310029AE
:10109000F8D004214FF0E022116170472DE9F041B2
:1010A000202000F095F8002863D03348006800281D
:1010B0005FD1202000F086F8022001F0AFF9404215
:1010C0002E490860032001F0A9F92D4908602D4A36
:1010D0002D492E4803F04EFE2D4A2E492E4800F091
:1010E00041FB2E4A2E492F4800F014FB2E48006881
:1010F00005F084FF0546224802682048016828461A
:1011000001F09EFF294908602248B0F9000005F06F
:10111000B1FF06462548006805F0ACFF07462448A5
:101120000168384605F006FE054632461748016854
:10113000284602F001F81F4908601548B0F9000080
:1011400001F0BCFD1C4908601A48046808460068A4
:10115000201A1A4908601848006820441849086095
:10116000164800F047FA164801681448006800F075
:1011700067FABDE8F081000014812142A000002040
:10118000A4000020900000208C0000208800002097
:101190009800002096000020940000209E0000206F
:1011A0009C0000209A000020540000206C000020C9
:1011B000500000206800002070000020B0000020D7
:1011C000B400002001490860704700001404014089
:1011D000014600200022074B1B6803EA0102054B71
:1011E00014331B680B4013B10AB1012000E000204A
:1011F0007047000000040140002123498279002A41
:101200003AD00A46126803689A430B461A600A1DD0
:10121000126803689A430B1D1A60027911440A6828
:1012200003681A430A60184A0832126803689A432E
:10123000154B08331A601A1D126803689A43124B43
:101240000C331A604279102A0ED11A1F12680368F3
:101250001A430D4B08331A601A1D126803681A43AB
:10126000094B0C331A600DE00749427911440A68B2
:1012700003681A430A6005E0027911440A680368AA
:101280009A430A60704700000004014000B587B02F
:101290000121042001F048F80121084601F034F84A
:1012A00004208DF81B000320ADF8180006A9224881
:1012B00000F0C6F803A801F0F7FC0020ADF812001A
:1012C000ADF80E004FF6FF70ADF810000020ADF83D
:1012D0000C0003A94FF0804001F094FC00231A4653
:1012E00003214FF0804001F011FB684601F09AFBAA
:1012F0000020ADF800000A20ADF80800694640075C
:1013000001F03AFB0420ADF800000A20ADF8080017
:101310006946400701F030FB01221146900701F0B9
:101320008AFB00214FF0804001F03EFC012188073C
:1013300001F0D1FA07B000BD0008014000B587B048
:101340000121022000F0E0FF0121042000F0ECFF69
:1013500048208DF81B00C020ADF8180003208DF840
:101360001A0006A9204800F06BF80020ADF8120022
:10137000ADF80E004FF6FF70ADF810000020ADF88C
:101380000C008DF8140003A9184801F03BFC6846D6
:1013900001F048FB0020ADF800000F20ADF8080078
:1013A0006946124801F0E8FA0420ADF800000F2069
:1013B000ADF8080069460D4801F0DEFA00231A4630
:1013C00003210A4801F0A2FA01221146074801F060
:1013D00032FB0021054801F0E7FB0121034801F041
:1013E0007AFA07B000BD0000000801400004004088
:1013F0000146002901DD0A4600E04A4210467047D6
:1014000030B500228B071C0F0F2303FA04F20B4B9D
:101410008C1053F824309343084C8D1044F8253039
:1014200023468C1053F824308C07240F00FA04F460
:101430002343024C8D1044F8253030BD0800014094
:101440002DE9F0410246002500260020002300245B
:10145000002791F803C00CF00F0591F803C00CF0C1
:10146000100CBCF1000F03D091F802C04CEA050546
:1014700091F800C0BCF1000F31D0146800202BE0BF
:101480004FF0010C0CFA00F3B1F800C00CEA0306AF
:101490009E4220D183004FF00F0C0CFA03F7BC439F
:1014A00005FA03FC4CEA040491F803C0BCF1280FD0
:1014B00006D14FF0010C0CFA00FCC2F814C00AE08F
:1014C00091F803C0BCF1480F05D14FF0010C0CFAA4
:1014D00000FCC2F810C0401C0828D1D31460B1F839
:1014E00000C0BCF1FF0F34DD546800202EE000F195
:1014F000080C4FF0010808FA0CF3B1F800C00CEA30
:1015000003069E4221D183004FF00F0C0CFA03F723
:10151000BC4305FA03FC4CEA040491F803C0BCF197
:10152000280F05D100F1080C08FA0CF8C2F8148055
:1015300091F803C0BCF1480F07D100F1080C4FF03F
:10154000010808FA0CF8C2F81080401C0828CED315
:101550005460BDE8F0810000F0B50A460023002485
:101560000021002500F00046B6F1004F02D11D4ECB
:10157000F16901E01B4E7168C0F3034583B200F4CA
:101580004016B6F5401F08D121F07061154E7668FF
:1015900026F07066134F7E6012E000F48016B6F5F8
:1015A000801F06D1032606FA05F4A14341F07061BD
:1015B00006E0460D360103FA06F6B14341F07061CC
:1015C00022B1460D360103FA06F6314300F000461B
:1015D000B6F1004F02D1034EF16101E0014E71609E
:1015E000F0BD00000000014041617047016170479B
:1015F00000BFFEE7104B02681B689A4202DD0E4AEC
:10160000126802600D4B02681B689A4202DA0B4AAC
:1016100012680260084B0A681B689A4202DD064A9B
:1016200012680A60054B0A681B689A4202DA034A8C
:1016300012680A6070470000A8000020AC0000207B
:1016400070B505460C46002D07DD012018490860DD
:1016500000201849C1F8BC0106E0002014490860C8
:1016600001201449C1F8BC012846FFF7C1FE86B22B
:101670003146114801F093FA002C08DD01200C4995
:10168000091F086000200B49C1F8B00107E00020E5
:101690000749091F086001200649C1F8B00120462A
:1016A000FFF7A6FE86B23146034801F07AFA70BD14
:1016B000B881214200802142002C01400EB5012159
:1016C000082000F031FE0121084600F02DFE4820E0
:1016D0008DF803002020ADF8000003208DF80200F3
:1016E00069460B48FFF7ACFE05210120FFF788FE95
:1016F000202001900C208DF8090000208DF80800B2
:1017000001208DF80A0001A8FFF776FD0EBD00004C
:10171000000C01402DE9FC4104460D4616466B467F
:1017200006223B21682000F0E5F90746BFB99DF885
:1017300001009DF8001040EA012000B220809DF8D1
:1017400003009DF8021040EA012000B228809DF8B5
:1017500005009DF8041040EA012000B230803846B0
:10176000BDE8FC812DE9FC4104460D4616466B465A
:1017700006224321682000F0BDF90746BFB99DF855
:1017800001009DF8001040EA012000B220809DF881
:1017900003009DF8021040EA012000B228809DF865
:1017A00005009DF8041040EA012000B23080384660
:1017B000BDE8FC8110B500200E4908600E480068A5
:1017C00020F070400C4908600846006840F0405026
:1017D000086000200949C1F89C0100F011F80120BF
:1017E0000449086000F00CF800200449C1F8980191
:1017F00010BD000098812142000C01400080214270
:1018000010B50220FFF733FC10BD000008B5012120
:10181000082000F089FDC020ADF8000010208DF8F0
:10182000030003208DF8020069460248FFF708FE16
:1018300008BD0000000C014010B500200E490860F2
:101840000E48006820F070400C49086008460068A7
:1018500040F04050086001200949C1F89C01FFF7A1
:10186000CFFF012004490860FFF7CAFF00200449A8
:10187000C1F8980110BD000098812142000C014080
:101880000080214270B5054600241648006820F00B
:101890007040144908600846006840F00040086045
:1018A000002614E0002010490860FFF7A9FF01207E
:1018B0000E49C1F898016006040E0B487C38006898
:1018C00008B1601CC4B2FFF79BFF701CC6B2082EA3
:1018D000E8DB15B9FFF7B0FF01E0FFF76BFF20462B
:1018E00070BD0000000C014098812142008021421F
:1018F00070B504461248006820F070401049086036
:101900000846006840F04050086000200D4908601B
:10191000002512E0E0090B49091D08606006040E6D
:1019200001200949C1F89801FFF76AFF0020054925
:101930000860FFF765FF681CC5B2082DEADB70BDC3
:10194000000C0140988121420080214210B50E48D0
:10195000006820F070400C4908600846006840F0BC
:10196000405008600120094908600949C1F8980100
:10197000FFF746FF002005490860FFF741FF002000
:101980000349C1F8980110BD000C01409C8121421F
:101990000080214210B50E48006820F070400C49CC
:1019A00008600846006840F040500860002009497F
:1019B00008600949C1F89C01FFF722FF0120054991
:1019C00008600549C1F89C01FFF71AFF10BD00002F
:1019D000000C0140988121420080214210B5002472
:1019E0001448006820F070401249086008460068FA
:1019F00040F00040086001200F490860FFF700FF39
:101A000001200E49C1F89801FFF7FAFE07E0601CBB
:101A1000C4B2FA2C03DDFFF7BDFF012010BD06485C
:101A2000803800680028F2D10349091F086000BF10
:101A3000F4E70000000C01409C812142008021421B
:101A400010B5FFF7E3FE80216B2000F0D7F864208B
:101A5000FFF701FB00216B2000F0D0F8032000F01D
:101A60008BF8002000F080F8C82000F0AAF80021D0
:101A7000382000F0C3F800216A2000F0BFF80021F0
:101A8000232000F0BBF88021372000F0B7F8752044
:101A900000F013F80446682C0BD101216B2000F0F4
:101AA000ADF800216C2000F0A9F8642000F089F85E
:101AB00001E0012010BD0020FCE770B50446FFF7EF
:101AC00045FFD020FFF714FFFFF788FF2046FFF700
:101AD0000FFFFFF783FFFFF739FFD120FFF708FF64
:101AE000FFF77CFF0020FFF7CDFE0546FFF752FF12
:101AF000284670BD2DE9F04106460F4614461D46A6
:101B0000FFF724FF002141EA4601C8B2FFF7F0FECB
:101B1000FFF764FF20B1FFF73DFF0120BDE8F08132
:101B20003846FFF7E5FEFFF759FFFFF70FFF0121EA
:101B300001EB4601C8B2FFF7DBFEFFF74FFF0DE0F8
:101B4000012C04D10020FFF79DFE287003E0012046
:101B5000FFF798FE2870601EC4B26D1C002CEFD1F8
:101B6000FFF718FF0020D9E710B50446E006010E84
:101B70001C2000F043F810BD10B50446E006010E2D
:101B80001B2000F03BF810BD70B504460025BC2CAE
:101B900001DB012510E0622C01DB02250CE02A2C80
:101BA00001DB032508E0142C01DB042504E00A2CEA
:101BB00001DB052500E0062529461A2000F01EF865
:101BC00070BD70B50446B4F57A7F01DD4FF47A74C8
:101BD000042C00DA04244FF47A7090FBF4F0401ED9
:101BE000C5B22946192000F009F80546264604EB3F
:101BF000D671C1F34F00FFF7C7FF70BD70B5054642
:101C00000C46FFF7A3FED020FFF772FEFFF7E6FEBB
:101C100018B1FFF7BFFE012070BD2846FFF768FE30
:101C2000FFF7DCFE2046FFF763FEFFF7D7FE18B193
:101C3000FFF7B0FE0120EFE7FFF7ACFE0020EBE777
:101C40002DE9F04105460E4617469846FFF77EFE01
:101C5000002141EA4501C8B2FFF74AFEFFF7BEFE88
:101C600020B1FFF797FE0120BDE8F0813046FFF775
:101C70003FFEFFF7B3FE00240CE018F80400FFF766
:101C800037FEFFF7ABFE18B1FFF784FE0120EBE74C
:101C9000601CC4B2BC42F0DBFFF77CFE0020E3E72F
:101CA00000BFFEE708B50121082000F03DFB102031
:101CB0008DF803004FF47040ADF8000003208DF85C
:101CC000020069460148FFF7BBFB08BD000C01405C
:101CD000704708B54FF4A06000F056F817208DF853
:101CE000000001208DF8030000208DF801008DF820
:101CF0000200684600F010F825208DF80000012051
:101D00008DF8030002208DF801008DF8020068466E
:101D100000F002F808BD000070B5002100230F227A
:101D2000C47804B3154C246804F4E064C4F5E0649A
:101D3000210AC1F10403CA40447804FA03F184780B
:101D40001440214309010E4C0678A155047804F093
:101D50001F050124AC4005786D11AD0005F1E025AB
:101D6000C5F8004109E0047804F01F050124AC40E7
:101D7000044D0678761145F8264070BD0CED00E064
:101D800000E400E080E100E002490143024A116002
:101D9000704700000000FA050CED00E070B500246B
:101DA00018E004F1B000002100F045FA00210846D7
:101DB00000F041FA0021102000F03DFA002505E076
:101DC0000121002000F037FA681CC5B2802DF7DB36
:101DD000601CC4B2082CE4DB70BD00002DE9FF5F7D
:101DE00086B014461D464FF0010A0020039004906F
:101DF00005904FF00109002600BF834600221346DC
:101E00002046294604F054FC09D285F00040CDE973
:101E100000402046019904F0D7FB064604E0204626
:101E2000294604F0D1FB0646304604F02AFC22463F
:101E30002B46CDE9000104F075FD074688460022D7
:101E4000554B3846414604F06FFCCDE9000104F0E3
:101E5000EBFB834607E009EB89004FEA40090AF1F2
:101E6000010000F0FF0A0A2096FBF0F090FBF9F069
:101E70000028F0D142F2107096FBF0F00A2190FB9E
:101E8000F1F201FB1200C0B28DF80C004FF47A7031
:101E900096FBF0F090FBF1F201FB1200C0B28DF85E
:101EA0000D00642096FBF0F090FBF1F201FB1200B4
:101EB000C0B28DF80E000A2096FBF0F090FBF1F214
:101EC00001FB1200C0B28DF80F000A2096FBF0F162
:101ED00000FB1160C0B28DF810002E208DF81100AB
:101EE0004FF47A70BBFBF0F00A21B0FBF1F201FB7A
:101EF00012008DF812006420BBFBF0F0B0FBF1F291
:101F000001FB12008DF813000A20BBFBF0F0B0FBC0
:101F1000F1F201FB12008DF814000A20BBFBF0F176
:101F200000FB11B08DF8150000211498801D03AA44
:101F30001154894608E003A810F80900303003A9BD
:101F400001F8090009F10109B9F10A0FF3DB0022D8
:101F500013462046294604F0ABFB08D20AF10100E3
:101F600000F0FF0A2D20CAF1050103AA50542E20CB
:101F70008DF8110000211498801D03AA1154CAF194
:101F8000050003A942180C23DDE9061000F038F91A
:101F90000AB0BDE8F09F00000088C34010B54FF4C0
:101FA00080710948FFF722FB4FF400710648FFF7E4
:101FB0001DFB4FF400710448FFF716FB4FF48071CE
:101FC0000148FFF711FB10BD000C014010B54FF4A4
:101FD00080710748FFF70AFB4FF400710448FFF7D0
:101FE00003FB4FF400710248FFF700FB10BD000037
:101FF000000C014010B54FF480710448FFF7F6FA69
:102000004FF480710148FFF7EFFA10BD000C01405A
:1020100008B50121092000F087F901214348FFF7A5
:102020009BFA4FF44070ADF8000010208DF80300CB
:1020300003208DF8020069463D48FFF701FA4FF48E
:1020400040713B48FFF7D2FA4FF44870FFF703F8AE
:102050000021AE2000F0EFF80021084600F0EBF878
:102060000021102000F0E7F80021402000F0E3F804
:102070000021B02000F0DFF80021812000F0DBF823
:102080000021FF2000F0D7F80021A12000F0D3F8B4
:102090000021A62000F0CFF80021A82000F0CBF806
:1020A00000213F2000F0C7F80021C82000F0C3F84D
:1020B0000021D32000F0BFF80021084600F0BBF853
:1020C0000021D52000F0B7F80021802000F0B3F8FF
:1020D0000021D82000F0AFF80021052000F0ABF877
:1020E0000021D92000F0A7F80021F12000F0A3F88A
:1020F0000021DA2000F09FF80021122000F09BF868
:102100000021DB2000F097F80021302000F093F848
:1021100000218D2000F08FF80021142000F08BF8B2
:102120000021AF2000F087F808BD00000002300059
:10213000000C014070B504460D4605F1B0000021C9
:1021400000F079F8102141EA1410002100F073F832
:1021500004F00F00002100F06EF870BD2DE9F0478B
:1021600007460E469046994600250024A8F1200017
:10217000C5B27F2F02DD0027B01CC6B2B9F1100F27
:1021800024D131463846FFF7D5FF002408E004EBA0
:102190000511194A505C012100F04DF8601CC4B2D1
:1021A000082CF4DB701CC1B23846FFF7C3FF0024D3
:1021B00009E004EB051108310F4A505C012100F0E1
:1021C0003AF8601CC4B2082CF3DB12E03146384602
:1021D000FFF7B0FF00240AE005EB4501074A02EBD8
:1021E0004101085D012100F026F8601CC4B2062CF4
:1021F000F2DBBDE8F0870000467700081E75000896
:102200002DE9F04105460E4614461F460EE02278A1
:102210003B4631462846FFF7A1FF05F10800C5B24D
:10222000782D02DD0025B01CC6B2641C2078002881
:10223000EDD1BDE8F08170B504460D461DB1E0B2A8
:1022400000F04AF802E0E0B200F030F870BD0000A3
:102250002DE9F04105462C464FF480711248FFF7F6
:10226000C3F900261CE0274607F08007802F04D121
:10227000B9000D48FFF7BAF904E04FF400710A48BD
:10228000FFF7B2F96006040E4FF480710648FFF7BD
:10229000ADF94FF480710448FFF7A6F9701CC6B27F
:1022A000082EE0DBBDE8F081000C014010B50446CB
:1022B000FFF774FE7820FFF7CBFFFFF79BFE0020AF
:1022C000FFF7C6FFFFF796FE2046FFF7C1FFFFF7B7
:1022D00091FEFFF77BFE10BD10B50446FFF75EFED2
:1022E0007820FFF7B5FFFFF785FE4020FFF7B0FF2E
:1022F000FFF780FE2046FFF7ABFFFFF77BFEFFF7FF
:1023000065FE10BD7047000029B1064AD26902433C
:10231000044BDA6104E0034AD2698243014BDA617B
:10232000704700000010024029B1064A926902433A
:10233000044B9A6104E0034A92698243014B9A611B
:10234000704700000010024030B500210022002438
:1023500000232D4D6D6805F00C0121B1042905D035
:10236000082923D105E0294D056022E0274D0560AD
:102370001FE0254D6D6805F47012234D6D6805F45E
:102380008034022505EB92421CB9214D554305606E
:102390000BE01D4D6D6805F400351DB11C4D554316
:1023A000056002E0194D5543056002E0174D0560D8
:1023B00000BF00BF144D6D6805F0F0010909154D0F
:1023C0006B5C0568DD4045600F4D6D6805F4E061AC
:1023D000090A104D6B5C4568DD4085600A4D6D68EB
:1023E00005F46051C90A0B4D6B5C4568DD40C56062
:1023F000054D6D6805F44041890B074D6B5CC56860
:10240000B5FBF3F5056130BD0010024000127A0003
:1024100000093D00000000201000002070B50546B6
:10242000022D02D0032D14D10AE04FF0804000F0BD
:102430008EFA04B200214FF0804000F0B5FB0AE0B4
:10244000064800F084FA04B20021044800F0ACFB16
:1024500001E0002400BF00BF204670BD0004004022
:10246000704710B500F002F810BD00000CB5002058
:10247000019000903348006840F480303149086092
:1024800000BF3048006800F4003000900198401C04
:102490000190009818B90198B0F5A06FF1D12948C2
:1024A000006800F4003010B10120009001E000202D
:1024B00000900098012843D12348006840F01000A4
:1024C000214908600846006820F0030008600846BB
:1024D000006840F0020008601A48406819494860E6
:1024E0000846406848600846406840F4806048609C
:1024F0000846406820F47C1048600846406840F474
:10250000E81048600846006840F08070086000BF2E
:102510000C48006800F000700028F9D009484068B5
:1025200020F00300074948600846406840F0020078
:10253000486000BF0348406800F00C000828F9D14B
:102540000CBD000000100240002002407047000057
:1025500010B51348006840F00100114908600846B2
:102560004068104908400E494860084600680E4916
:1025700008400B4908600846006820F48020086085
:102580000846406820F4FE0048604FF41F00886051
:10259000FFF767FF4FF000600449086010BD0000BE
:1025A000001002400000FFF8FFFFF6FE08ED00E01B
:1025B000F0B50C46154600220021068C4FF6FE773A
:1025C0003E400684028B018C4FF60C7632407E1C16
:1025D00006EA03162E433243104EB0420ED0104E80
:1025E000B0420BD0B0F1804F08D00E4EB04205D0B3
:1025F0000D4EB04202D00D4EB04206D14FF6FD76E0
:10260000314044F00106314305E04FF6F5763140A4
:1026100044F00106314302830184F0BD002C0140E7
:10262000003401400004004000080040000C00405D
:10263000F0B50C461546002200210026078C4FF607
:10264000EF7C07EA0C070784028B018C4FF6FF77BB
:1026500007EA041640F6FF473A404FF6FF7707EACD
:1026600003373A434FF6FF7707EA05273A43114FFE
:10267000B8420ED0104FB8420BD0B0F1804F08D006
:102680000E4FB84205D00E4FB84202D00D4FB8429F
:1026900006D14FF6DF77394046F01007394305E0A1
:1026A0004FF65F77394044F01007394302830184C5
:1026B000F0BD0000002C0140003401400004004047
:1026C00000080040000C0040F0B50C461546002202
:1026D00000210026078C4FF6FF6C07EA0C070784E1
:1026E000828B018C4FF6FF7707EA04264FF60C77B2
:1026F0003A404FF6FF7707EA03172F433A43114F4B
:10270000B8420ED0104FB8420BD0B0F1804F08D075
:102710000E4FB84205D00E4FB84202D00D4FB8420E
:1027200006D14FF6FF57394046F48077394305E02C
:102730004FF2FF57394044F4807739438283018454
:10274000F0BD0000002C01400034014000040040B6
:1027500000080040000C0040F0B50C461546002271
:1027600000210026078C4EF6FF7C07EA0C07078441
:10277000828B018C4FF6FF7707EA043640F6FF475D
:102780003A404FF6FF7707EA05273A434FF6FF77BF
:1027900007EA03373A43114FB8420ED0104FB84200
:1027A0000BD0B0F1804F08D00E4FB84205D00E4F7D
:1027B000B84202D00D4FB84206D14DF6FF773940EE
:1027C00046F48057394305E047F6FF57394044F453
:1027D0008057394382830184F0BD0000002C014002
:1027E000003401400004004000080040000C00409C
:1027F00030B589B005460C460121C802FFF794FDAB
:1028000001210420FFF790FD18208DF823004FF4DC
:102810001060ADF8200003208DF8220008A91D48A3
:10282000FEF70EFE0020ADF81A00ADF81600ADF868
:102830001850ADF814408DF81C0005A9164800F09A
:10284000E1F90121144800F052F801A800F09DF9C7
:102850006020ADF804000020ADF80C000120ADF8B8
:1028600006000020ADF80A0001A90B4800F0ECF8C2
:1028700001A9094800F03EF90821074800F030F9A5
:102880000821054800F074F90121034800F023F8FD
:1028900009B030BD00080140002C014010B50121F5
:1028A000880700F057F818B10121880700F010F8E8
:1028B00010BD000010B50121044800F04BF818B11C
:1028C0000121024800F004F810BD0000000400409F
:1028D000CA430282704721B1028842F0010202809D
:1028E00004E002884FF6FE731A400280704731B14F
:1028F000B0F8442042F40042A0F8442005E0B0F8CB
:102900004420C2F30E02A0F844207047F0B50C46F4
:1029100015461E460021002200230189028B038CEC
:102920004FF6F877394021434FF6FC473A4040F2E2
:1029300001173A434FF6DD773B404FF6FF7707EA42
:1029400006172F433B43018102830384F0BD0146F8
:10295000888C704730B50246002000230024158A79
:1029600005EA0103958905EA010413B10CB10120C0
:1029700000E0002030BD000070B505460C4624483C
:1029800085420ED0234885420BD0B5F1804F08D048
:102990002148854205D02148854202D02048854201
:1029A00000D100E000BF208850B92389A288618847
:1029B0002846FFF7FDFDE188284600F0F7F825E0FE
:1029C000208804280AD12389A28861882846FFF735
:1029D0002FFEE188284600F0F2F817E0208808284A
:1029E0000AD12389A28861882846FFF76DFEE18815
:1029F000284600F0F1F809E02389A288618828467A
:102A0000FFF7AAFEE188284600F0EFF870BD00004D
:102A1000002C014000340140000400400008004048
:102A2000000C0040002101804180012181800021B3
:102A3000C180018170471AB183890B43838102E011
:102A400083898B438381704770B500240022002363
:102A5000058C4FF6FE7635400584028C8388048B06
:102A60004FF68F752C40B51E2C400D882C43751EDB
:102A70002A400D892A434D882A43144DA8420BD081
:102A8000134DA84208D0134DA84205D0124DA842BC
:102A900002D0124DA84213D14FF6F7752A404D8946
:102AA0002A434FF6FB752A408D882A434FF6FF656F
:102AB0002B404FF6FF552B408D892B43CD892B435F
:102AC00083800483CD888586028470BD002C0140FC
:102AD00000340140004001400044014000480140F2
:102AE0000A460021018B4FF6F77319401143018309
:102AF0007047000070B5002200230024058C4EF6BC
:102B0000FF7635400584038C8488828B48F6FF75F8
:102B10002A404FF6FF452A400D884FF6FF7606EA19
:102B200005252A434DF6FF752B400D8906EA05352C
:102B30002B434D8806EA05352B430B4DA84202D0A6
:102B40000A4DA84208D14BF6FF752C408D894FF6EF
:102B5000FF7606EA85152C4384808283CD88A0F811
:102B60004050038470BD0000002C0140003401403F
:102B70000A460021818B4FF2FF7319404FF6FF7315
:102B800003EA0223194381837047002101804180B9
:102B90008180C180018141818181C18170478186AD
:102BA0007047A0F84010704781847047028B4FF641
:102BB000F3731A400283028B0A4302837047028B2D
:102BC0004FF2FF331A400283028B4FF6FF7303EA82
:102BD00001231A4302837047828B4FF6F3731A4026
:102BE0008283828B0A4382837047828B4FF2FF334A
:102BF0001A408283828B4FF6FF7303EA01231A4344
:102C000082837047002202881D4B98420ED01D4BD4
:102C100098420BD0B0F1804F08D01B4B984205D0A2
:102C20001A4B984202D01A4B984204D14FF68F7338
:102C30001A404B881A43174B984207D0164B9842BC
:102C400004D04FF6FF431A40CB881A4302808B888A
:102C500083850B8803850A4B98420BD0094B984219
:102C600008D00E4B984205D00D4B984202D00D4B28
:102C7000984201D10B7A03860123838270470000BA
:102C8000002C0140003401400004004000080040D6
:102C9000000C0040001000400014004000400140C3
:102CA00000440140004801404FF6FF71818000213F
:102CB0000180C18041800172704700002DE9F0471A
:102CC0000446204603F0DDFC07464FF03332054B47
:102CD00003F02AFD054603F077FC81464846BDE82F
:102CE000F08700003333E3BF10B540F2255126488A
:102CF00000F083F8012845D140F22551224800F028
:102D00007CF8002838D0204800F032F9C4B22146BF
:102D10001EA0FDF78DFA1E48008800F4004058BB45
:102D20001B48008800F4804060B10A2C03D00020CA
:102D30001749088020E01648008840F400401449F4
:102D4000088019E00D2C06D11148008840F480401D
:102D50000F49088010E00E480088C0F30D000D49AF
:102D60000C540B480088401C09490880084600881C
:102D70003F2801DD0020088040F22551024800F084
:102D800014F800BF10BD00000038014025630000AA
:102D900014000020C400002001F40072B2F5007F8E
:102DA00000D100BFCA430280704710B50022002343
:102DB00040F66A14A14200D100BF0A1201249440D7
:102DC000A3B2DC43048010BD21B1828942F40052D9
:102DD000828104E082894DF6FF731A408281704738
:102DE00002460020B1F5007F00D100BF13880B40E0
:102DF0000BB1012000E00020704770B502460024AE
:102E000000230025002040F66A16B14200D100BF21
:102E1000C1F3421501F01F03012606FA03F3012D49
:102E200002D19689334006E0022D02D1168A334042
:102E300001E0968A33400C12012606FA04F4168843
:102E4000344013B10CB1012000E0002070BDF0B59A
:102E50000346002400260025002040F66A17B942E8
:102E600000D100BF1846C1F3421401F01F0601272C
:102E700007FA06F5012C01D10C3004E0022C01D137
:102E8000103000E014301AB107682F43076002E0E9
:102E90000768AF430760F0BD2DE9F04786B00546EF
:102EA0000E460024A24600BFA1460027B08900B10B
:102EB00000BF2F462C8A4CF6FF700440F088044374
:102EC0002C82AC894EF6F3100440B0883189084357
:102ED000718908430443AC81AC8A4FF6FF4004403B
:102EE000B0890443AC8201A8FFF72EFA1F4887423D
:102EF00002D1DDF810A001E0DDF80CA0A88900F4F3
:102F0000004040B10AEBCA0000EB0A1031684900EA
:102F1000B0FBF1F807E00AEBCA0000EB0A103168D9
:102F20008900B0FBF1F86420B8FBF0F0040120093F
:102F3000642101FB1089A88900F4004040B13220CF
:102F400000EBC900B0FBF1F000F00700044308E01B
:102F5000322000EB09106421B0FBF1F000F00F000B
:102F600004432C8106B0BDE8F08700000038014022
:102F700001468888C0F308007047C1F308028280C8
:102F8000704700BFFEE7000010B586B0044601217F
:102F90008803FFF7C9F901210420FFF7C5F91820BC
:102FA0008DF817004FF40070ADF8140003208DF871
:102FB000160005A91848FEF743FA04208DF81700FB
:102FC0000002ADF8140003208DF8160005A9124880
:102FD000FEF736FA01940020ADF810000C20ADF891
:102FE0000E000020ADF80C00ADF80A00ADF80800A6
:102FF00001A90A48FFF750FF012240F22551074876
:10300000FFF725FF01210548FFF7DEFE40210348B9
:10301000FFF7C2FE06B010BD0008014000380140B5
:1030200010B5044621460548FFF7A7FF00BF8021E1
:103030000248FFF7D5FE0028F9D010BD0038014046
:103040002DE9F84F04460D461646324FA819001BCD
:10305000314908603148006804F00CF8834639466D
:1030600004F068F881462C48006804F003F88346B1
:1030700039464FF07E5004F065F95946009004F04F
:1030800059F88246494603F055FE804603F0B6FFE4
:103090002349086008460068204908602148006804
:1030A0001F49096808441F4908600846006842F241
:1030B0001071884201DD084608E01A4800681A4984
:1030C000884201DA084601E01648006815490860A0
:1030D0000846006803F0CEFF83461448016858464E
:1030E00004F028F881460E48006803F0C3FF8346C9
:1030F0000F480168584604F01DF88246494603F01F
:1031000019FE804603F07AFF0A4908600846006805
:10311000BDE8F88F3333333F800000207800002073
:103120008400002074000020F0D8FFFF640000201D
:10313000600000207C0000202DE9F05F05460E466F
:1031400014460021204604F0FDF883460D4801682E
:10315000584603F0EFFF81463146284604F0E7F871
:10316000834609480168584603F0E4FF8246494611
:1031700003F0E0FD804603F041FF07463846BDE816
:10318000F09F00005C00002058000020490050EA39
:10319000C12018BF04204A0D18BF40F0010040F2C2
:1031A000FF72B2EB515F08BF40F00200012808BF78
:1031B000052070472DE9F0414F1E00EBC701044682
:1031C000D1E9000115461E4637F006020DD02A4609
:1031D000334603F0A9FA7F1E04EBC703D3E90023AB
:1031E00002F0A2FF37F00602F1D1022F25D0042F02
:1031F00013D0062F18BFBDE8F0812A46334603F0EE
:1032000093FAD4E90A2302F08FFF2A46334603F0EB
:103210008BFAD4E9082302F087FF2A46334603F0ED
:1032200083FAD4E9062302F07FFF2A46334603F0EF
:103230007BFAD4E9042302F077FF2A46334603F0F1
:1032400073FAD4E9022302F06FFF2A46334603F0F3
:103250006BFAD4E90023BDE8F04102F065BF01221A
:1032600004F017B902F060BF002213461046114661
:1032700003F016B8024A0020110704F00AB9000052
:1032800001FDFFFF30380A2801D2012070470020DD
:10329000704700002DE9FE4F06460F4600256846A0
:1032A00001F080F9002442E056F8240057F8241079
:1032B000A0EB010ABAF1000F01DB514601E0CAF1AF
:1032C0000001084603F0D6FE83464FF08F4103F01D
:1032D0009FFD80465DF82400002103F05BFE16D0C0
:1032E0005DF82410404603F093FD82464FF07E5176
:1032F00004F028F8814629F0004A0F48416A5046F8
:1033000003F0E4FF12D20120A04005430EE00A487A
:10331000C169404603F0DAFE05D30748016A40461A
:1033200003F0D4FF02D20120A0400543641C032C0B
:10333000BADB2846BDE8FE8F607D00082DE9F04D20
:103340008D4F21F0004A86B005460C46BA452ADB6F
:10335000AAEB070028430AD08848824501DC1AD12D
:10336000CDB106B02846BDE8F04DFFF778BF844ADE
:10337000844B284603F0D8F907460E46824A834B11
:103380002846214603F0D0F906B03A463346BDE858
:10339000F04D02F0C9BE0120FDF733F906B0BDE8DB
:1033A000F04DFFF761BF7A48824542DABAF1795FA2
:1033B0000BDA2846FFF7EAFE042808BFFFF75AFF9A
:1033C000284606B02146BDE8F08D2A460B46104639
:1033D00003F0AAF9834602466E480E460B460621C4
:1033E0007844FFF7E7FE5A46334603F09DF98046DE
:1033F00069488A465A46334604217844FFF7DAFE84
:103400005A46334603F090F900223B4602F08CFE08
:1034100002460B464046514602F042FF2A462346EA
:1034200003F082F906B02A462346BDE8F04D02F0CB
:103430007BBE284624F0004100223D463B4603F077
:1034400071FA4FF0FF3204F024F806460246534862
:103450000F460B4606217844FFF7ACFE32463B464A
:1034600003F062F9CDE900014D4832463B460421A4
:103470007844FFF79FFE32463B4603F055F90022A1
:103480002B4602F051FE834602913046394602F047
:10349000F3FD804643480D46504517DCDDE9000149
:1034A0005A46029B02F0FCFE42462B4603F03CF9D2
:1034B00042462B4602F038FE012203F0EAFF304A72
:1034C000304B03F021FB304A304B4CE04FF0000A08
:1034D00052460B46404602F027FECDE90310524605
:1034E0002B461046194603F01FF932463B4603F0BF
:1034F00019FADDE9033202F0D3FE06460F46DDE994
:1035000000015A46029B02F0CBFE83460091012245
:103510003046394603F0BDFF194A1A4B03F002FA50
:1035200006460F4601224046294603F0B2FF5A469E
:10353000009B03F0F9F832463B4603F0E5FA0646F5
:103540000F4601225046294603F0A3FF0E4DDFF837
:1035500058802A46434603F0E5F932463B4603F0DD
:10356000E1F92A46434603F0DDF9002CD8BF81F08B
:10357000004106B0BDE8F08D0000F03F0000F07F94
:10358000075C143326A6913C182D4454FB21F93FC7
:103590000000E03FAC550000C25500003655000069
:1035A0004C5500003333EF3FFB21E93F2DE9F84F45
:1035B00004460D4621F0004000917349814211DC20
:1035C0007249884201DC06D12CB120462946BDE86B
:1035D000F84FFFF744BE6E48002DCCBF6D496E49D1
:1035E000BDE8F88F6D49814211DD6D498142D8BF38
:1035F0004FF0FF366DDD20462946FFF7C7FD042852
:1036000008BFFFF737FE20462946BDE8F88F654919
:10361000654F25F00045814233DD6449814219DD63
:10362000002632464FF080432046294602F07CFDBA
:1036300080468A4601222046294603F02AFF0022BE
:103640003B4603F061FA4246534602F029FE044627
:103650000D463EE001260022BA463B46204629465A
:1036600002F062FD80460F4600225346204629465E
:1036700003F04AFA42463B4602F012FE04460D466B
:1036800027E04B4981421BDDDFF828A102260022FA
:1036900053462046294603F047F800223B4602F0F5
:1036A00043FD80460F46002253462046294603F03C
:1036B0002BFA42463B4602F0F3FD04460D4608E075
:1036C000032622462B4600203B4902F0E9FD044632
:1036D0000D4622462B461046194603F025F88B4628
:1036E000824602460B4603F01FF80746024633485F
:1036F00088460B4606217844FFF75CFD52465B4640
:1037000003F012F882462E488B463A46434605217E
:103710007844FFF74FFD3A46434603F005F802466A
:103720000B46002E504659460CDA02F0FDFC2246AC
:103730002B4602F0F9FF01B022462B46BDE8F04FC0
:1037400003F0F0B802F0F0FC22462B4602F0ECFF4A
:103750001C4A7A4402EBC603D3E9002303F0D4F9F0
:1037600022462B4603F0D0F9174A7A4402EBC603EF
:10377000D3E9002303F0D6F8009A002AB8BF81F0FD
:103780000041BDE8F88F0000000010440000F07F09
:10379000182D4454FB21F93FFB21F9BF0000DC3F09
:1037A0000000203E0000F33F0000F03F0000E63F35
:1037B000008003400000F83F0000F0BF4E530000BF
:1037C0000C530000AA520000725200002DE9F04D87
:1037D0009446CCF1000423F000464CEA0404594F0F
:1037E00046EAD4749A46884621F00042BC4206D884
:1037F000454240EA050442EAD474BC4204D9BDE81B
:10380000F04D6246FFF72EBDAAF14055A5F17F6548
:1038100055EA0C040BD0022404EAAA744A4DDFF8DE
:103820002CE144EAD87452EA000B04D00CE0BDE865
:10383000F04DFFF7BBBE002C14BF012CBDE8F08D8E
:10384000022C30D0032C32D056EA0C0B0AD0BE42E8
:1038500020D1BA4209D126F0804622F08042334678
:10386000114617E000291ADB25E0DFF8E4B0FB443D
:10387000002C04BFDBE90001BDE8F08D012C02BF84
:10388000DBE9000181F00041BDE8F08D022C0AD097
:10389000032C0CD0BA4212D1B8F1000F0BDA2A482F
:1038A0002C49BDE8F08D28462B49BDE8F08D28460F
:1038B0007146BDE8F08D24482849BDE8F08D921B83
:1038C00012153C2AC4BF204F244E10DCBAF1000F61
:1038D000BEBF12F13C0F00273E4608DB624602F0F5
:1038E000DFFC21F00041FFF761FE07460E4694B170
:1038F000012C08BF86F000460DD0194A194B022C46
:103900003846314615D003F0FFF82A46BDE8F04DA1
:10391000114B03F0F9B8002213463846314602F045
:1039200017FE04BF0220FCF76CFE38463146BDE8A6
:10393000F08D03F0E9F82A46BDE8F04D064B02F0A1
:10394000F1BF00000000F07F182D4454FB2109C096
:1039500006520000FB21F9BFFB210940FB21F93F82
:10396000075C143326A6A13C2DE9F0410446E0781B
:1039700000F0C006E07800F03F05607800F001003C
:1039800098B1EF102846E91705EB5171C910A5EB66
:10399000C101491C01F0FF080B48006820B10A482A
:1039A000414602683846904700BF607800F0080042
:1039B00030B10548406818B1B011034A51688847D2
:1039C0000020BDE8F08100000401002038B5044665
:1039D00064B120208DF8000028208DF801003020EF
:1039E0008DF8020038208DF8030004E0A3220421A2
:1039F0006846FCF77FFD6A46042140F69E2002F0EF
:103A000069FA01F053FE38BD3EB5044602208DF838
:103A10000000CA208DF80100E3208DF80200092083
:103A20008DF803006A460421682002F053FAA320AF
:103A30008DF8000004F0400048B1C0208DF801006E
:103A4000C8208DF80200C2208DF8030006E0A320F4
:103A50008DF801008DF802008DF8030004F4C070A9
:103A600048B1C4208DF80400CC208DF80500C62094
:103A70008DF8060006E0A3208DF804008DF80500FF
:103A80008DF80600A3208DF807008DF808008DF84A
:103A900009006A460A2140F6A72002F01BFA04F04A
:103AA000030018B120208DF8000002E0D8208DF826
:103AB00000006A46012140F6B62002F00BFA04F03D
:103AC000200018B1012000F0ADF802E0002000F065
:103AD000A9F804F4C07008B304F4807060B1B22097
:103AE0008DF800008B208DF80100B6208DF80200C3
:103AF0009B208DF803000BE0B0208DF800008020A3
:103B00008DF80100B4208DF8020090208DF803009C
:103B10006A46042140F6A22002F0DCF904F001001C
:103B200020B3F8208DF800006A4601214FF40B60A5
:103B300002F0D0F9FA21072000F02CFC072000F059
:103B4000F3FB012000F013FC642000F0F3FC4FF4C1
:103B5000FA7000F002FDC821304800F0A3FB2820D5
:103B600000F0BCFB0A2000F0CCFB08E0D8208DF868
:103B700000006A4601214FF40B6002F0ABF904F03B
:103B8000020018B1D9208DF8000002E0D8208DF88D
:103B900000006A46012140F23D7002F09BF904F0FA
:103BA000040018B1012000F069F802E0002000F0E4
:103BB00065F804F0100018B10120FFF707FF02E0DC
:103BC0000020FFF703FF44F008001549488101F089
:103BD0006DFD00201249887304F0400018B10846BA
:103BE000807B801D887304F4C07020B10C48807BFA
:103BF000801D0B49887304F0140020B10848807BB5
:103C000010300749887304F0030020B10448807B1A
:103C1000001D0349887300203EBD000009E3CA026D
:103C2000040100203EB504466CB10EA1D1E900208C
:103C30008968CDE9002002916A4609214FF4976016
:103C400002F048F93EBD0AA2D2E900109268CDE91F
:103C5000010200916A4609214FF4976002F03AF997
:103C6000F0E70000B8AAB38DB4980D355D000000F0
:103C7000B8AAAAAAB088C3C5C700000038B50446D0
:103C800064B1C0208DF80000C2208DF80100C4206E
:103C90008DF80200C6208DF8030004E08B22042179
:103CA0006846FCF727FC6A46042140F6982002F09B
:103CB00011F901F0FBFC38BD10B5C8234FF4806248
:103CC000024940F6F63001F085FB10BD887D000802
:103CD0002DE9F04F8DB00746884615469946DDE937
:103CE000166B0024002030806B49887B5A4605A95A
:103CF00001F03CFC18B1601E0DB0BDE8F08F6648C5
:103D0000807A00F01400002867D09DF814000006A7
:103D10009DF8151040EA01409DF8161040EA012078
:103D20009DF81710084328609DF8180000069DF8BC
:103D3000191040EA01409DF81A1040EA01209DF850
:103D40001B10084368609DF81C0000069DF81D10BC
:103D500040EA01409DF81E1040EA01209DF81F1026
:103D60000843A8609DF8200000069DF8211040EA55
:103D700001409DF8221040EA01209DF823100843DD
:103D8000E86004F11000C4B228680014019068686B
:103D900000140290A86800140390E86800140490CE
:103DA00001984043029901FB0100039901FB0100C6
:103DB000049901FB010ABAF1706F02DBBAF1885F66
:103DC00005DD01F073FC00203080401E94E7B6F959
:103DD000000040F48070308000BF2F48807A00F0EF
:103DE000400020B305A9601C085C095D40EA012081
:103DF00000B2A8F8000005A9E01C095C05AAA01CF7
:103E0000105C41EA002000B2A8F8020005A9601D7C
:103E1000095C201D105C41EA002000B2A8F80400F3
:103E2000A01DC4B2B6F9000040F0080030801A4866
:103E3000408900F4C07008B305A9601C085C095DE6
:103E400040EA012000B2388005A9E01C095C05AAFF
:103E5000A01C105C41EA002000B2788005A9601D1A
:103E6000095C201D105C41EA002000B2B880A01D52
:103E7000C4B2B6F9000040F0700030800648807A85
:103E800000F0030018B105A90819FFF76DFD4846B9
:103E900000F036FF00202FE70401002070B588B045
:103EA000064601A801F0EAF8BDF804000021C903A4
:103EB00041EA5045C4034448007A00F0030056F834
:103EC000200005904048007A00F0040010B10598E9
:103ED000404205903C48007AC0F3C10056F82000EB
:103EE00006903948007A00F0200010B10698404250
:103EF00006903548007AC0F3811056F820000790EC
:103F00003148008900F4807010B107984042079052
:103F10000598C117A0FB042301FB043100FB051029
:103F2000810041EA927005900698C117A0FB042316
:103F300001FB043100FB0510810041EA92700690FC
:103F40000798C117A0FB042301FB043100FB0510F7
:103F5000810041EA927007900598000E8DF80800E4
:103F60000598000C8DF809000598000A8DF80A00E4
:103F70000598C0B28DF80B000698000E8DF80C0065
:103F80000698000C8DF80D000698000A8DF80E00BA
:103F90000698C0B28DF80F000798000E8DF810003B
:103FA0000798000C8DF811000798000A8DF8120090
:103FB0000798C0B28DF8130002AA0C214FF42570A7
:103FC00001F088FF08B070BD0401002030B585B055
:103FD000044616A207CA02AB07C3C82C03DD4FF084
:103FE000FF3005B030BDC82090FBF4F0401E85B214
:103FF000280A8DF80000E8B28DF801006A46022117
:1040000040F2162001F066FF10B14FF0FF30E8E7F4
:1040100002AA0C2140F6C12001F05CFF10B14FF064
:10402000FF30DEE7044884810020DAE7FEF2ABC40B
:10403000AAF1DFDFBBAFDFDF040100201FB50446BC
:104040004848007A00F0030054F8200001904548E9
:10405000007A00F0040010B10198404201904148FC
:10406000007AC0F3C10054F8200002903D48007A65
:1040700000F0200010B10298404202903948007AC6
:10408000C0F3811054F8200003903648008900F4F2
:10409000807010B10398404203903349019880FB2F
:1040A0000101800F40EA810001902F49029880FBB6
:1040B0000110820042EA917002902B49039880FB24
:1040C0000110820042EA917003900198000E8DF871
:1040D00000000198000C8DF801000198000A8DF88D
:1040E00002000198C0B28DF803006A4604214FF423
:1040F000747001F0EFFE18B14FF0FF3004B010BD46
:104100000298000E8DF800000298000C8DF8010056
:104110000298000A8DF802000298C0B28DF80300E0
:104120006A4604214FF4757001F0D4FE10B14FF0CF
:10413000FF30E3E70398000E8DF800000398000CB1
:104140008DF801000398000A8DF802000398C0B2B0
:104150008DF803006A4604214FF4767001F0BAFE30
:10416000CCE700000401002009E3CA0210B586B0C4
:10417000044647A00068039046A00068029046A04D
:104180000068019045A00068009004F0030003A9B6
:10419000085C8DF8140003A8C4F3C101405C8DF8DD
:1041A000150003A8C4F38111405C8DF8160004F0DB
:1041B000030002A9085C8DF8100002A8C4F3C10135
:1041C000405C8DF8110002A8C4F38111405C8DF8A9
:1041D000120005AA032140F2264001F07BFE18B12F
:1041E0004FF0FF3006B010BD04AA032140F22A4070
:1041F00001F070FE10B14FF0FF30F3E70198059029
:104200000098049004F0040058B19DF8140040F0A8
:1042100001008DF814009DF8100040F001008DF8A9
:10422000100004F0200058B19DF8150040F0010086
:104230008DF815009DF8110040F001008DF8110077
:1042400004F4807058B19DF8160040F001008DF81C
:1042500016009DF8120040F001008DF8120005AA2A
:1042600003214FF4886001F035FE10B14FF0FF30AC
:10427000B8E704AA032140F2314001F02BFE10B14F
:104280004FF0FF30AEE7064804810020AAE70000A7
:104290004CCD6C000CC92C003656760026466600C4
:1042A00004010020F8B505460E464FF47A7095FBE0
:1042B000F0F000FB06F4200E8DF80000200C8DF8C5
:1042C0000100200A8DF80200E0B28DF803006A4672
:1042D00004214FF4AE7001F0FDFDF8BD38B5044681
:1042E000052094FBF0F084B220128DF80000E0B2BB
:1042F0008DF801006A4602214FF4AD7001F0EAFD2D
:1043000038BD38B50446052094FBF0F084B2201285
:104310008DF80000E0B28DF801006A4602214FF4EA
:10432000AC7001F0D7FD38BD38B5044600200090D0
:1043300004F0010020B19DF8000040F03000009032
:1043400004F0020020B19DF8000040F00C00009045
:1043500004F0040020B19DF8000040F0030000903C
:104360006A4601214FF4A47001F0B4FD38BD38B5A0
:104370000446012C01DA012402E0042C00DD0424AF
:10438000601EC0B200906A46012140F24F1001F059
:10439000A1FD38BD2DE9FC4706460F4606F0070093
:1043A00010B1B7F5C86F03DD4FF0FF30BDE8FC87F3
:1043B000384602F077FE8146594902F029FD8046D1
:1043C000684600F035FE9DF80000022806D004285B
:1043D00016D0082826D0102848D135E04FF08D415E
:1043E000404602F0A7FE814602F024FE84B24D4909
:1043F000404602F09FFE814602F01CFE85B238E086
:104400004FF08C41404602F095FE814602F012FECC
:1044100084B24549404602F08DFE814602F00AFE14
:1044200085B226E04FF08B41404602F083FE814684
:1044300002F000FE84B23D49404602F07BFE814618
:1044400002F0F8FD85B214E04FF08A41404602F0D8
:1044500071FE814602F0EEFD84B23549404602F01D
:1044600069FE814602F0E6FD85B202E04FF0FF30C2
:104470009CE700BF20128DF80400E0B28DF8050023
:1044800028128DF80600E8B28DF8070006F001004A
:10449000A0B101AA02214FF4EA7001F01BFD10B196
:1044A0004FF0FF3082E70DF1060202214FF49270C7
:1044B00001F010FD10B14FF0FF3077E706F0020079
:1044C000A0B101AA02214FF4EC7001F003FD10B17C
:1044D0004FF0FF306AE70DF1060202214FF49470AD
:1044E00001F0F8FC10B14FF0FF305FE706F0040078
:1044F000A0B101AA02214FF4EE7001F0EBFC10B163
:104500004FF0FF3052E70DF1060202214FF4967092
:1045100001F0E0FC10B14FF0FF3047E7002045E725
:1045200000004843000040460000C04500004045F0
:104530000000C04438B50446052094FBF0F085B275
:1045400028128DF80000E8B28DF801006A460221B9
:104550004FF4EF7001F0BEFC38BD38B504460520BD
:1045600094FBF0F085B228128DF80000E8B28DF8C7
:1045700001006A4602214FF4ED7001F0ABFC38BD3A
:1045800070B504460D46E0B2FEF74AFD00BF80213B
:104590000348FEF725FC0028F9D0204670BD000036
:1045A000003801407CB5054628494968087801ABC8
:1045B00004220D21FDF79EFA08B107207CBD9DF86D
:1045C0000700C0F301109DF8041001F0E00140EA7B
:1045D000E1008DF800009DF80700C0F381009DF810
:1045E000051001F0E00140EAE1008DF801009DF8BE
:1045F000070000F003009DF8061001F0E00140EA1A
:10460000E1008DF8020000241CE01DF8040018B938
:10461000002045F8240013E00D4845F8240006E08A
:1046200055F824000B4902F085FD45F824001DF8DB
:104630000400401EC0B20DF804000028F0D100BFF5
:10464000601CC4B2032CE0DB0020B7E71800002098
:104650007B14AE3E1D5A843F2DE9F04F87B00546CE
:104660000C46914601208DF8100000208DF81100B5
:10467000FE4A1268917CFD4A5268107804AB02220F
:10468000FDF7DEFA20B14FF0FF3007B0BDE8F08F44
:10469000C820FCF7E0FC00208DF81000F34A1268F7
:1046A000D17BF24A5268107804AB0122FDF7C8FAB8
:1046B00010B14FF0FF30E8E7EC4A12685179EB4A4D
:1046C0005268107804AB0122FDF7BAFA10B14FF02E
:1046D000FF30DAE7E54A1268917CE44A52681078C4
:1046E00004AB0122FDF7ACFA10B14FF0FF30CCE77C
:1046F000DE4A1268D17DDD4A5268107804AB01228F
:10470000FDF79EFA10B14FF0FF30BEE7D74A1268AE
:104710001179D64A5268107804AB0122FDF790FA5D
:1047200010B14FF0FF30B0E70C208DF81000CF4AE9
:1047300012681179CD4A5268107804AB0122FDF756
:104740007FFA10B14FF0FF309FE70F20FCF783FC9A
:10475000C648806A407A8DF81000C44A1268917881
:10476000C24A5268107804AB0122FDF769FA10B111
:104770004FF0FF3089E7BD48806A007A8DF810005D
:10478000BA4A12685178B94A5268107804AB0122CB
:10479000FDF756FA10B14FF0FF3076E7B9F1000F90
:1047A00007D0B248806A807A40F0E0008DF81000AF
:1047B00004E0AE48806A807A8DF81000AB4A126837
:1047C0009179AA4A5268107804AB0122FDF738FAB1
:1047D00010B14FF0FF3058E7B9F1000F07D0A348F0
:1047E000806AC07A40F0E0008DF8100003E0A04835
:1047F000C07A8DF810009D4A1268D1799B4A5268A0
:10480000107804AB0122FDF71BFA10B14FF0FF3016
:104810003BE7B9F1000F02D0C820FCF71CFC402098
:104820008DF81000914A12681179904A52681078F8
:1048300004AB0122FDF704FA10B14FF0FF3024E77A
:1048400078208DF81000894A12685179874A526899
:10485000107804AB0122FDF7F3F910B14FF0FF30EF
:1048600013E783498889FCF7F6FB00208DF81000D8
:104870007E4A126851797D4A5268107804AB012251
:10488000FDF7DEF910B14FF0FF30FEE6774A12680F
:10489000917A764A5268107804AB0222FDF72AF921
:1048A00010B14FF0FF30F0E69DF811009DF81010A8
:1048B00040EA012B0C209BFBF0F0C6B20020A86060
:1048C00068602860A06060602060824665E0674A9A
:1048D0001268D17A654A5268107804AB0C22FDF751
:1048E00009F910B14FF0FF30CFE69DF811009DF8A7
:1048F000101040EA012000B2ADF808009DF8130046
:104900009DF8121040EA012000B2ADF80A009DF8AF
:1049100015009DF8141040EA012000B2ADF80C001B
:10492000BDF90810206808442060BDF90A106068CD
:1049300008446060BDF90C10A0680844A0609DF8B0
:1049400017009DF8161040EA012000B2ADF80000F3
:104950009DF819009DF8181040EA012000B2ADF84A
:1049600002009DF81B009DF81A1040EA012000B2D9
:10497000ADF80400BDF90010286808442860BDF9AE
:104980000210686808446860BDF90410A86808440B
:10499000A8600AF1010000F0FF0AB24597DB344835
:1049A000D0F800C02868C117090441EA1041070483
:1049B000624600233846FBF717FC32460023CDE958
:1049C0000201FBF711FC28602948D0F800C0686894
:1049D000C117090441EA1041070462460023384622
:1049E000FBF702FC32460023CDE90201FBF7FCFB9A
:1049F00068601F48D0F800C0A868C117090441EAE0
:104A000010410704624600233846FBF7EDFB3246AF
:104A10000023CDE90201FBF7E7FBA8601448D0F8BA
:104A200004C02068C117090441EA10410704624626
:104A300000233846FBF7D8FB32460023CDE90201BC
:104A4000FBF7D2FB20600A48D0F804C06068C117A9
:104A5000090441EA10410704624600233846FBF787
:104A6000C3FB32460023CDE9020103E01800002019
:104A7000607D0008FBF7B8FB60601148D0F804C007
:104A8000A068C117090441EA1041070462460023E7
:104A90003846FBF7A9FB32460023CDE90201FBF7BC
:104AA000A3FBA060A068002804DDA068A0F580300A
:104AB000A06003E0A06800F58030A0600020E4E57D
:104AC000607D00082DE9FC5F06460F4600253D4944
:104AD0004968087801AB03220D21FDF70BF810B1EE
:104AE0000720BDE8FC9F9DF8040000F01F008DF832
:104AF00004009DF8050000F01F008DF805009DF8EA
:104B0000060000F01F008DF80600002456E056F85D
:104B1000240057F82410A0EB010BBBF1000F01DBC0
:104B2000594601E0CBF10001084602F0A3FA4FF02C
:104B30008F41009002F06CF9814601A8005D68B3D6
:104B40002149086802F0AEFA834659461F4802F030
:104B50005FF9804604E01E49404602F0EBFA8046C9
:104B600001A8005D401EC0B201A908550028F2D17D
:104B70004146484602F04CF983464FF07E5102F020
:104B8000E1FB82462AF0004B0F488169584602F04B
:104B90009DFB12D20120A04005430EE00A480169A6
:104BA000484602F093FA05D307484169484602F0A7
:104BB0008DFB02D20120A0400543641C032CA6DB20
:104BC00028468EE718000020607D000800B04C45A4
:104BD00054E3853F10B50446204600F00FF8034625
:104BE000E01C00F00BF843EAC00083B2A01D00F007
:104BF00005F843EA801083B2184610BD014691F9CA
:104C00000020002A01DD00201EE091F90020002A8A
:104C100001DA042018E091F90120002A01DD0120C9
:104C200012E091F90120002A01DA05200CE091F947
:104C30000220002A01DD022006E091F90220002A6C
:104C400001DA062000E007207047000008B5FDF7F4
:104C500040F84FF4E130FEF797F9FDF7D9F9FDF789
:104C60009DF8FCF7EDFE00F097F9FCF727FDFCF747
:104C70000DFBFCF763FBFDF715F841F61F41002023
:104C8000FDF7B6FD33E01A48006802F027F8044645
:104C9000012022460B460A2100900020FDF79EF8D5
:104CA0001448006802F01AF80446012022460B4618
:104CB000142100900220FDF791F80F48006801F0E0
:104CC000E0FC0446012022460B460A210090042005
:104CD000FDF784F80948006801F0D3FC0446012080
:104CE00022460B46142100900620FDF777F8CAE70C
:104CF000880000208C000020A0000020A4000020DC
:104D00007047000070B50446002624F001041848DE
:104D100090F8240008B1002070BD1548807A10B9C1
:104D20004FF0FF30F8E71248057C807A20401049A8
:104D300008740846007CA04202D04FF0FF3600E025
:104D4000002614B90A48007D18B1012001F04CF981
:104D500002E0002001F048F93CB100F0A7FC20B1CE
:104D6000034805744FF0FF30D6E73046D4E7000023
:104D7000180000202DE9F04F99B004460D46164664
:104D80004FF07E574FF000084FF000094FF0000A37
:104D900012A813A918AB0EAACDE9001014A916A8E1
:104DA000FEF796FF18B1012019B0BDE8F08FBDF8ED
:104DB0004C0000F4807000287ED00E9802F05AF962
:104DC00083464FF09D4102F023F807460F9802F00A
:104DD00051F983464FF09D4102F01AF88046109831
:104DE00002F048F983464FF09D4102F011F88146E8
:104DF000119802F03FF983464FF09D4102F008F808
:104E0000824639464FF0804002F094F949460590B9
:104E100002F090F9414607904FF0404002F08AF9C5
:104E20005146059002F086F90690079901F082FF3D
:104E3000834601F053FFCDE90801FEF77FFA4FF0FA
:104E40006632544BCDE90A0101F06EFCCDE90C014C
:104E500001F038F9206049464FF0804002F06AF9CD
:104E60004946029002F066F9414604904FF04040F6
:104E700002F060F94146029002F05CF90390049957
:104E800002F060FA83464FF07E5101F053FF059027
:104E900001F024FFCDE9080139464FF0804002F0CF
:104EA00049F94146039002F045F9494604904FF014
:104EB000804002F03FF900E068E05146039002F0C4
:104EC00039F98346049901F035FF059001F006FF9A
:104ED000CDE90601DDE90823FEF778FC4FF06632E4
:104EE0002C4BCDE90A0101F01FFCCDE90C0101F0CA
:104EF000E9F828605146504602F01CF949460490F2
:104F0000484602F017F941460390404602F012F974
:104F100039460190384602F00DF90090019901F0F0
:104F200009FF0290039902F00DFA8346049902F0FA
:104F300009FA059001F0D2FECDE908015146384644
:104F400002F0F8F849460490404602F0F3F8039066
:104F5000049901F0EFFE4FF08041059002F0EAF86D
:104F6000834601F0BBFECDE90601DDE90823FEF72B
:104F70002DFC4FF06632074BCDE90A0101F0D4FB5E
:104F8000CDE90C0101F09EF8306001E002200BE752
:104F9000002009E766A64C4070B50024FCF736FCFB
:104FA00000F020F900283DD1782000F02BFFC4B29A
:104FB0000CB1012070BD7820FFF7A4FEC4B20CB183
:104FC0000220F7E7642000F0CFFEC4B20CB103204A
:104FD000F0E7FEF771FEC4B20CB10420EAE7134813
:104FE000FFF7F8FD0546FFF7C1F8C4B20CB1052084
:104FF000E0E740F27310FEF707FDC4B20CB10620E3
:10500000D8E76420FEF7E2FFC4B20CB10720D1E775
:1050100000F0A0FF0446012000F0A2FDC4B21CB1C4
:105020000920C7E70A20C5E70020C3E744000020A5
:1050300001461148407A30B1012807D0022808D033
:1050400003280CD108E0022008700BE0042008704F
:1050500008E00820087005E01020087002E04FF01A
:10506000FF30704700BF0448C07C18B10878400684
:10507000000E08700020F4E71800002001461348D5
:10508000407A30B1012808D002280AD0032810D174
:105090000BE04FF4804008800EE041F69C700880E1
:1050A0000AE04FF48050088006E04FF4006008806A
:1050B00002E04FF0FF30704700BF0448C07C10B1E1
:1050C0000888401008800020F5E700001800002044
:1050D00001460248007C087000207047180000203C
:1050E00001460F48007A30B1012807D0022809D0C4
:1050F00003280FD10AE0FA2008800EE04FF4FA707E
:1051000008800AE04FF47A70088006E04FF4FA60F5
:10511000088002E00020088000BF00BF0020704728
:105120001800002001460E48007A30B1012807D04F
:10513000022808D003280CD108E00A4808600BE0D8
:105140000948086008E00948086005E00848086068
:1051500002E04FF0FF30704700BF0020FBE7000087
:105160001800002000000343000083423333034251
:105170003333834101461248C07A082817D2DFE84A
:1051800000F01704070A0D101318BC20088013E064
:105190006220088010E02A2008800DE0142008809A
:1051A0000AE00A20088007E00520088004E000BF2C
:1051B00000BF0020088000BF00BF00207047000033
:1051C000180000200146064890F8240010B14FF066
:1051D000FF3070470248C08908800020F9E70000CE
:1051E000180000201CB580208DF80000654A126868
:1051F000917C644A526810786B460122FCF720FDCE
:1052000010B14FF0FF301CBD6420FBF724FF0020DD
:105210008DF800005B4A1268917C5A4A52681078F7
:105220006B460122FCF70CFD10B14FF0FF30EAE7AE
:10523000544A1268917D534A526810786B46062290
:10524000FCF758FC10B14FF0FF30DCE79DF805008B
:10525000C007400F9DF8031001F0010140EA410032
:105260009DF8011001F0010140EA010494B1012C04
:1052700003D101214348C17431E0022C03D1002144
:105280004048C1742BE021463FA0FAF7D1FF4FF010
:10529000FF30B8E73B4A1268D1783A4A5268107832
:1052A0006B460122FCF726FC10B14FF0FF30AAE755
:1052B0009DF8000000F00F042CB93D48FAF7B8FF44
:1052C0004FF0FF309FE7042C06D13AA0FAF7B0FF69
:1052D00001212C48C17402E000212A48C174FF2139
:1052E00028488172FF2027490872FF212548417212
:1052F000C1724FF6FF71C181FF21017481740121D8
:10530000017380F82210002180F823104175017587
:105310001630016041608160163880F8241080F8F2
:105320002510C1844FF4FA6000F062FC10B14FF018
:10533000FF3068E7022000F02BFB10B14FF0FF3088
:1053400061E72A2000F0CEFC10B14FF0FF305AE7A1
:10535000322000F009FD10B14FF0FF3053E700207C
:10536000FFF7D0FC10B14FF0FF304CE7002000F009
:1053700051FB10B14FF0FF3045E7002000F042FD37
:10538000002040E718000020556E737570706F7232
:1053900074656420736F6674776172652070726FD4
:1053A00064756374207265762025642E0A000000FF
:1053B0008C8A000848616C662073656E7369746935
:1053C00076697479207061727420666F756E642ED0
:1053D0000A0000002DE9F04385B005460E469046D0
:1053E0009946294890F8250020B14FF0FF3005B0CC
:1053F000BDE8F08316B94FF0FF30F8E7002423E052
:10540000281B102801DD102000E0281B87B232196C
:105410003946204600F05EFD10B14FF0FF30E6E760
:1054200001AA3946204600F001F910B14FF0FF30D3
:10543000DDE730193A4601A9FBF730F810B16FF0FB
:105440000100D4E7E01984B2AC42D9DB4FEA28204E
:105450008DF8000008F0FF008DF801000A4A12687C
:10546000917E094A526810786B460222FCF7E8FBED
:1054700010B14FF0FF30BAE70121034880F8251042
:10548000A0F826900020B2E71800002038B50446A6
:10549000282C02DD4FF0FF3038BDDCB9002000F0D1
:1054A000EBFB00208DF8000007208DF801002E4A4C
:1054B0001268917C2C4A526810786B460222FCF7E5
:1054C000BFFB10B14FF0FF30E6E700212648017521
:1054D0000020E1E7012000F0CFFB20208DF8000044
:1054E000012C06D100208DF80100052000F0FAFB08
:1054F00017E0052C06DC01208DF80100052000F0E6
:10550000F1FB0EE0142C06DC02208DF801000A20CD
:1055100000F0E8FB05E003208DF80100142000F006
:10552000E1FB9DF80100072101EB8010C0B28DF86E
:1055300001000D4A1268917C0B4A526810786B4644
:105540000222FCF77DFB10B14FF0FF30A4E70821E9
:105550000548817200210173012101750020FFF7C8
:10556000D1FB002098E7000018000020F8B50446A1
:105570000F4616462C4890F8240010B94FF0FF3023
:10558000F8BD2948807A10B94FF0FF30F8E7264A75
:105590001268917A244A526810786B460222FCF70E
:1055A000A9FA10B14FF0FF30EAE79DF801009DF82D
:1055B000001040EA0125A54203DA00203070401EA9
:1055C000DEE7194840684088B5EB600F17DD164AE2
:1055D0001268517C144A526810786B460122FCF71D
:1055E00089FA10B14FF0FF30CAE79DF8000000F0D3
:1055F000100020B100F05AF86FF00100C0E7E2B2ED
:10560000094B1B68D97A084B5B6818783B46FCF756
:1056100071FA10B14FF0FF30B2E795FBF4F0401E85
:1056200030700020ACE7000018000020F8B50446F8
:105630000D46164616B94FF0FF30F8BD1A48807A6D
:1056400010B94FF0FF30F8E720128DF80000E0B2FB
:105650008DF801009DF801002844134949684989E3
:10566000884202DD4FF0FF30E7E70F4A1268117EF3
:105670000D4A526810786B460222FCF7E1FA10B12D
:105680004FF0FF30D9E7EAB2074B1B68597D064B54
:105690005B6818783346FCF72DFA10B14FF0FF30F5
:1056A000CBE70020C9E700001800002008B57048CB
:1056B000807A10B94FF0FF3008BD002000906C4A8E
:1056C0001268D17B6A4A526810786B460122FCF757
:1056D000B7FA10B14FF0FF30EEE7654A1268517922
:1056E000634A526810786B460122FCF7A9FA10B1A0
:1056F0004FF0FF30E0E75E4A126811795C4A526869
:1057000010786B460122FCF79BFA10B14FF0FF3086
:10571000D2E7574890F82400002853D00C2000907E
:10572000534A12681179524A526810786B46012226
:10573000FCF786FA10B14FF0FF30BDE73220FBF7DF
:105740008AFCC02000904A48807A00F0010020B115
:105750009DF8000040F020000090454A1268117941
:10576000434A526810786B460122FCF769FA10B17F
:105770004FF0FF30A0E73E48407C10B1022000907F
:1057800001E0002000903A4A1268D17B384A526802
:1057900010786B460122FCF753FA10B14FF0FF303E
:1057A0008AE700200090324A12685179304A5268E4
:1057B00010786B460122FCF743FA002855D04FF0D1
:1057C000FF3079E704200090294A12681179284AAD
:1057D000526810786B460122FCF732FA10B14FF094
:1057E000FF3069E72248807C20B92148807A00F0A8
:1057F000010010B94020009001E0602000901C4A98
:10580000126811791A4A526810786B460122FCF727
:1058100017FA10B14FF0FF304EE73220FBF71BFCB8
:105820001348407C10B10120009001E0002000905E
:105830000F4A1268D17B0E4A526810786B460122DB
:10584000FCF7FEF910B14FF0FF3035E7084A126857
:105850005179074A52681078054B10330122FCF742
:10586000EFF910B14FF0FF3026E7002024E70000E9
:10587000180000202DE9F04F8DB083460F4602201E
:105880000C90424890F8240020B1002000F068F904
:10589000012600E0002603A8FFF722FC05A8FFF779
:1058A000C7FB01A8FFF766FC02A8FFF78BFC37488F
:1058B00090F80AA004A8FFF70BFC002407E00022E0
:1058C00039465846FEF7C8FE00B902E0641C022CB7
:1058D000F5DB00BF022C01D1002528E0002407E001
:1058E000012206A909A8FEF7B7FE00B902E0641C70
:1058F000022CF5DB00BF022C01D1002517E006A920
:105900003846FDF7C7FC00F0FF0809A95846FFF725
:10591000D9F800F0FF090025B9F1000F01D145F0D9
:105920000105B8F1000F01D145F0020500BFFF20CD
:1059300016490872FF2115484172C1724FF6FF7176
:10594000C181FF218172017401210173BDF80C0036
:1059500000F04EF99DF8140000F01AF8BDF80400AC
:1059600000F0C0F9BDF8080000F0FEF9504600F064
:1059700049FA9DF81000FFF7C5F916B1012000F0B3
:10598000EFF828460DB0BDE8F08F000018000020A9
:1059900038B504461E48807A10B94FF0FF3038BD44
:1059A000022C06D0042C07D0082C08D0102C0CD1C7
:1059B00008E0002000900BE00820009008E0102094
:1059C000009005E01820009002E04FF0FF30E6E77D
:1059D00000BF0F48407A9DF80010B0EBE10F01D1F5
:1059E0000020DCE70A4A1268D179094A5268107827
:1059F0006B460122FCF724F910B14FF0FF30CEE7DF
:105A00009DF80000C110024841720020C7E7000065
:105A10001800002038B504465048807CA04201D1CF
:105A2000002038BD002C46D04C4A126811794B4AF0
:105A3000526810786B460122FCF75CF810B14FF009
:105A4000FF30EEE79DF8000020F020000090434A70
:105A500012681179414A526810786B460122FCF7AE
:105A6000EFF810B14FF0FF30DBE70320FBF7F3FA5C
:105A700002200090394890F8220020B19DF80000E3
:105A800040F080000090354890F8230020B19DF848
:105A9000000040F030000090304A1268117D2F4A1B
:105AA000526810786B460122FCF7CAF8002851D0E2
:105AB0004FF0FF30B5E7294A12681179274A52683A
:105AC00010786B460122FCF715F810B14FF0FF304B
:105AD000A7E72248807A00F0010028B19DF8000075
